:040000006F0010433A
:100004000000000000000000900000201207002003
:10001400A9BDF9F5900000200000000000000000D8
:10002400900000209000002000000000000000006C
:10003400900000200000000090000020000000005C
:1000440090000020900000209000002090000020EC
:1000540090000020900000209000002090000020DC
:10006400920000209000002090000020AA000020B0
:1000740090000020900000209000002090000020BC
:1000840090000020900000209000002090000020AC
:1000940001A03727004083476740858B89C7854780
:1000A4002303F740952873002030373700408347F7
:1000B40047409946BD8B638DD70231476385E7007E
:1000C40011476399E702B735004003C6A5401725D9
:1000D40000001305E5C293858540971000E0E78092
:1000E400E01A420541810DE58547A389F18019A0F5
:1000F400834757407300203083468740850793F732
:10010400F70F2389D1808346A740E3E7D7FEE9BFF1
:10011400814737370040C5BF938741819C4393850E
:1001240041831546A90723AAF180014793172700A5
:10013400AE97944381C69443FD1694C30507E31711
:10014400C7FE09A003C7B1819387B18119EBB71723
:10015400004083A7470C139797008547635F070404
:10016400828083C607000547631ED700B717004087
:1001740083A7470C13979700894763540704A38DFB
:10018400018091A003C6070089466391C604B7178E
:10019400004083A7470C139797006343070283C764
:1001A400A1818507238DF18003C7A181930780076F
:1001B400E3F8E7FA8D47238EF180A38DF1808280E6
:1001C4009147A38DF180238D018059BF03C6070099
:1001D4008D45639BC500B717004083A7470C139751
:1001E4009700E35F07F661BF03C607009145639C70
:1001F400C502B717004083A7470C139697006346C0
:100204000600238ED18095476DBF83C7A1818507E2
:10021400238DF18083C6A18193073002E3F2D7F4E2
:10022400238EE180A9BF83C707001547E31AF7F2BD
:100234005DB7B716004083A7460C93C7F7FF13F7C3
:10024400170083A7460C971600009386A6A91716D5
:100254000000034626A9898B93B717008607D98F18
:1002640036876319F60003C6018283C61600094562
:100274006300D60A834617006399D70003C6018238
:100284008346270009456305D608834627006399FA
:10029400D70003C60182834637000945630AD606A0
:1002A400834637006399D70003C60182834607005B
:1002B4000945630FD604834607006399D70003C634
:1002C40001828346370005456304D604834617003C
:1002D4006399D70003C60182834607000545630975
:1002E400D602834627006399D70003C6018283465A
:1002F40017000545630ED600834637000145639910
:10030400D70003C5018203472700198D1335150053
:100314002380F182238CA180828073270080218B2B
:100324009387418209CB7327008023A2E1829843FB
:100334005D9B73100780010001003717004093068E
:1003440070052300D704930680FA2300D704010024
:1003540001008346B70493F6F60DA305D7042300E2
:100364000704732600809443A18AD18E739006807B
:1003740023A201820100010093760502638406181A
:100384000347A700118B25E773270080218B09CB36
:100394007327008023A2E18298435D9B731007803A
:1003A4000100010037170040930670052300D704AD
:1003B400930680FA2300D704010001008346A700B6
:1003C40093E646002305D70023000704F3260080A4
:1003D4009843218B558F7310078023A2018201005B
:1003E40001001307004B010001007D176DFF732707
:1003F4000080218B09CB7327008023A2E1829843DC
:100404005D9B7310078001000100371700409306BD
:1004140070052300D704930680FA2300D704010053
:1004240001007D892314A7000100010001000100DF
:1004340023000704F32600809843218B558F731003
:10044400078023A201820100010073270080218B11
:1004540009CB7327008023A2E18298435D9B73102C
:100464000780010001003717004093067005230040
:10047400D704930680FA2300D70401000100010089
:100484000100B726004013061005A383C68023008D
:100494000704F32600809843218B558F731007803F
:1004A40023A201820100010073270080218B09CB64
:1004B4007327008023A2E18298435D9B7310078019
:1004C4000100010037170040930670052300D7048C
:1004D400930680FA2300D704010001008346B70481
:1004E40093E60608A305D7042300070473270080B6
:1004F4009C43A18BD98F7390078023A201820100B2
:100504000100828093760504638B06140347A700D9
:10051400418B25E773270080218B09CB732700804B
:1005240023A2E18298435D9B7310078001000100C0
:1005340037170040930670052300D704930680FA0A
:100544002300D704010001008346A70093E60601B7
:100554002305D70023000704F32600809843218B4A
:10056400558F7310078023A2018201000100130735
:10057400007D010001007D176DFF73270080218B32
:1005840009CB7327008023A2E18298435D9B7310FB
:10059400078001000100371700409306700523000F
:1005A400D704930680FA2300D70401000100937650
:1005B400F50193E606042314D700010001000100AD
:1005C400010023000704F32600809843218B558FF4
:1005D4007310078023A20182010001001307600445
:1005E4006310E50473270080218B09CB73270080F7
:1005F40023A2E18298435D9B7310078001000100F0
:1006040037170040930670052300D704930680FA39
:100614002300D70401000100B72600400946B5B500
:1006240073270080218B09CB7327008023A2E182EA
:1006340098435D9B73100780010001003717004049
:10064400930670052300D704930680FA2300D70489
:1006540001000100B7260040130620053DB57327AD
:100664000080218B09CB7327008023A2E182984369
:100674005D9B73100780010001003717004093064B
:1006840070052300D704930680FA2300D7040100E1
:1006940001008356870093E6060C2314D700C5BBDC
:1006A4004111814601468145114506C6192CF3279F
:1006B4000080A18B9386418289CBF327008023A2FB
:1006C400F1829C42DD9B7390078001000100B71703
:1006D4000040130770052380E704130780FA238082
:1006E400E7040100010003C76704136717002383AD
:1006F400E70423800704732700809C42A18BD98FD1
:100704007390078023A2018201000100B2404101DD
:10071400828081460146814511456522F327008088
:10072400A18B1387418289CBF327008023A2F18216
:100734001C43DD9B7390078001000100B717004044
:10074400930670052380D704930680FA2380D70488
:1007540001000100FD562396D70223800704F326E7
:1007640000801C43A18BD58F7390078023A2018244
:1007740001000100F3270080A18B89CBF3270080BF
:1007840023A2F1821C43DD9B7390078001000100CA
:10079400B7170040930670052380D704930680FAA8
:1007A4002380D7040100010083C6670493E6160082
:1007B4002383D70423800704F32600801C43A18BE2
:1007C400D58F7390078023A201820100010001A04C
:1007D400BD473305F50201007D1575FD8280411189
:1007E40022C426C206C6AA84014463179400B240F8
:1007F400224492444101828005041305803E420450
:10080400C13F4180DDB72303048015472303E480FF
:1008140001002302A480828083076480E3CE07FE64
:1008240023030480828083076480E3CE07FE0345AC
:100834004480828083076480E3CE07FE2302A48081
:100844008280411126C44AC24EC006C61377F50BF6
:10085400AD47AA892E8995446306F7001945653783
:10086400653F8D444E854537FD59FD146398340129
:10087400B240A244124982494101828013550901C0
:100884001375F50F453F2209CDB7011126CC06CECD
:10089400B704080051371545BD37713769372AC683
:1008A400A53F32459377150089EB13651500137541
:1008B400F50FF240E24405618280FD14E9FC014534
:1008C400CDBF397126DC4ADA4ED852D656D45AD224
:1008D4005ED006DE62CE66CCB7E700E07D5783AA21
:1008E400070022C603AA470023A0E71823A2E7189B
:1008F400B7170040130770052380E704130780FA35
:100904002380E70483C74704930B75FFB684E2078B
:1009140093FBFB0F8546AA892E8B3289372400402E
:10092400E187015763FA76016308D5008946130706
:1009340000026313D5000157D98F93F7F70FB71C43
:1009440000402382FC0411472303E4801305F00FC5
:100954005D3D094CD135636D7C11B7050700DA950F
:1009640037870700795563F2E504B3879500636E12
:10097400F702370B0800A94733EB65016399F906C1
:1009840089E48144513D26850DA0DA850945553D0C
:1009940005090345F9FFFD14050B693D81C49377EF
:1009A400FB0FFDF7DD3569FD7D55B71700401307D3
:1009B40070052380E704130780FA2380E70403C744
:1009C4004704418B2382E704F250B7E700E023A0F9
:1009D400571123A24711E25432445259C259325A90
:1009E400A25A125B825B724CE24C21618280A54761
:1009F4006395F90685691309F00FB3069900B3747A
:100A04002B01B6941349F9FFB3749900856B3379BC
:100A14006901416B9387F9FFB3F7270199E363FCFD
:100A2400340193D94900C147E3E637FF99BF05690B
:100A3400C1697D19D9B71305800D63886901130550
:100A440000026384790113051008CA85DD3B353D36
:100A540021DD4E99B3843441D9B7DA852D45D53398
:100A6400CA94E30099F205097D3BA30FA9FED5BF03
:100A74009387F9FF93F7F70F6361FC0C83C71C049A
:100A840013073008631FF70437070800636BEB0490
:100A9400B3079B00B706100063F5D704334BEB0094
:100AA40089476393F9068980D549E38C04ECDA8598
:100AB4000945413B11090327C9FF91472320E480DD
:100AC40003076480E34E07FE23033481FD17EDFB27
:100AD400FD14110B81C49377FB0FE9FF7D3371F58E
:100AE400E1B5B717004003C75704B70708001377E9
:100AF400070219E3B78707007955E378FBEA330760
:100B04009B00E3FFE7F855B58547E382F9F2DA8500
:100B14002D45053B9389F4FFE38504E6293393F7D8
:100B2400390091EB832604800327090093074900C9
:100B3400E39AE6E43E89CE84F1BFB5476396F900B3
:100B44001305900BC93135BDB1471305B00AE38BCA
:100B5400F9FE99476391F904B7050800B365BB0032
:100B64002D45C53181448D4BA14975396396740176
:100B7400832704802320F9008504E39834FF832726
:100B8400048013172B01635507002312F900D5BB0A
:100B94002322F900FDB39D476399F90281451305AA
:100BA400B0044531BD442320090023220900FD5926
:100BB4009D3993F77400CA9703C70700FD14398D54
:100BC4002380A700E39634FF6DBBA1476392F90429
:100BD4006D398144630D0B008D479304C003630892
:100BE400FB009304000563048B0193044004137514
:100BF400C507E30895D819453931393905452131F7
:100C040026850D3909453D314931E31C05D669BBBB
:100C140091476399F90013056006F536F53E13050F
:0C0C240090090DB7E38F09D4F154A9BB6F
:100C3000971100209381018B177100201301813CD3
:100C40001305400097F5FF1F9385C53B170600204D
:100C5000130606FE63FAC5008322050023A0550093
:100C600011059105E3EAC5FE175500001305C5926D
:100C7000970500209385C5FB1386018163FAC500A3
:100C80008322050023A0550011059105E3EAC5FE66
:100C90001385018197250020938545296377B50049
:100CA000232005001105E36DB5FEFD42739002BCE3
:100CB0008D42739042809302800873A0023097F2B5
:100CC000FF1F9382223493E23200739052309702D6
:100CD00000009382820B73901234730020303D43E6
:100CE0002A876373C3029377F700BDEFADE5937670
:100CF00006FF3D8ABA960CC34CC30CC74CC74107CC
:100D0000E36BD7FE11E28280B306C3408A069702E6
:100D1000000096966780A6002307B700A306B700D9
:100D20002306B700A305B7002305B700A304B70047
:100D30002304B700A303B7002303B700A302B7003F
:100D40002302B700A301B7002301B700A300B70037
:100D50002300B700828093F5F50F93968500D58D1B
:100D600093960501D58D61B79396270097020000F1
:100D700096968682E78086FA9680C1171D8F3E96EA
:100D8000E374C3F8A5B7411106C6AD2C712C01A0C0
:100D900001112317B1001306E100AA8517150020E1
:100DA0001305C51606CE8529F24005618280AA95F5
:100DB000C2051307F00F9306F00FC181173600002C
:100DC0001306861C173800001308082C931705011A
:100DD000C1836396F50013958600598D82800505C1
:100DE0008347F5FFB98F3307F60003470700C29723
:100DF000358F83C60700D9BF411126C206C6AE840F
:100E000022C4954563F995002A840345050093059E
:100E1000A00A630EB500173500001305E513AD45B4
:100E2000853F0545B240224492444101828083457A
:100E300014002300B600034624002380C6000346A6
:100E400034002380C7001DCE9307560063DC970251
:100E5000930544003A85EF10700F9385E4FFC205B7
:100E60002285C181A93726940347F4FF9377F50FB4
:100E70006302F702173500001305C50FC145093F8E
:100E80000D454DB7173500001305C50DBD45093794
:100E9000094549BF21810347E4FF93170501C18339
:100EA0000145E301F7F8F9B7357106CF83C7318102
:100EB0008DCBD1471306A1002C0817150020130570
:100EC00025E42315F1000D2119E98345A1009307BD
:100ED000910078003400130671002808313FA3897F
:100EE0000180B735004083C7B5401D47636FF700E9
:100EF00083C7B5402146938585401D8E42064182B9
:100F000017150020130585008921FA400D618280A4
:100F100041111305800406C622C497F0FF1FE78025
:100F200000401306002097150020938525DE171535
:100F300000201305A5FD6D2C056613060680970598
:100F400000209385E55B17150020130565DB4D2414
:100F5000371700408327870A85451305001093E75C
:100F600007202324F70AEF10604E8D45130500205B
:100F7000EF10C04DEF1020760D45EF10E07895454D
:100F80000545EF10007A37E400E0B7070008372581
:100F900009002320F4101305057CEF10606F37273C
:100FA00000408347274081451305000293E717005F
:100FB0002301F740B70700012320F410EF10004988
:100FC000814513050008EF10604889450145EF1081
:100FD000A0431544EF10603A7D142398A180137448
:100FE000F40F6DF8B71700401547238CE704514400
:100FF0007D141374F40FEF1060437DF8B240224467
:1010000041018280411106C62137173500001305C2
:10101000A5EFEF10B0104926EF1080150D45DD212A
:10102000B2400145410105AB797152CC56CA496ABB
:10103000856A22D426D24ECE5AC806D64AD05EC67B
:1010400062C41384418397040020938464BE93890F
:10105000C181138B8181130ACA93938A0AE11C40D0
:10106000B5E39C4023AAF18283C709000547631FAB
:10107000F71217350000130525EAEF10300A054670
:1010800097050020938545C617050020130585BBED
:10109000EF007028238E018083470B00054717352A
:1010A0000000130565E9630BF70083470B00094750
:1010B0006318F70017350000130585E8EF101006D8
:1010C000238C01805C40BDEFDC4013898184938BCD
:1010D00001C323ACF1822D47B7170040238CE704EE
:1010E0004A8CEF10A0342310AC00090CE31B7CFFEA
:1010F000138781848147835607000907B697E31C4D
:1011000077FF1307401FB3D7E702138C818423981E
:10111000F1C20547B7170040238CE704EF100031F8
:101120002315AC3E090CE31B7CFF81470357A93E06
:101130000909BA97E31C79FF1307401FB3D7E702E9
:10114000239DF1001C4481E79C4423AEF1825C4462
:1011500091EBDC44B145173500001305E5DE23A013
:10116000F1843D311C48A9E39C48014523A2F18448
:10117000DD269387418190431307803E9443335685
:10118000E6029307C0035296B355F6023355560351
:10119000B3F5F5023376F602E147B3F6E6023375AE
:1011A000F502EF00B024BD2C013355BD83C7090003
:1011B0000947631AF70017350000130565D6EF10CD
:1011C000E075094675BD83C709000D471735000056
:1011D000130585D5630BF70083C709001147E31B8F
:1011E000F7EA173500001305A5D4EF1020735DB59D
:1011F000AA8705C21307F6FFB376C700054599EA2B
:1012000023A00700CCC32394C7002395E700014522
:10121000828005458280AA871145B5C72DC683D631
:10122000070003D787000D45369783D62700158F13
:101230004207418329CB0145B9C583560600637334
:10124000D700BA86C206C182014713150701418142
:101250006366D5002310D600014582803385E50002
:101260008348050003D8A70003D527000507337876
:101270000501C84342952300150103D52700050544
:101280002391A700D9B782802A8729CD83560500EC
:101290008357A500B697835625008507958FC2070B
:1012A000C183BE866373F600B286C206C1820D4555
:1012B0009DCB81476394D700014582800356270068
:1012C0000355A70003C805008507718D5043C20769
:1012D000C1832A9623000601035627000506231121
:1012E000C700C9BF11458280AA871145B1CF29CE59
:1012F00083D6070003D72700158F835606004207C1
:1013000041836373D700BA86C206C18209450DCFF7
:1013100001476366D7002310D6000145828003D5BC
:10132000070003D8A70033780501C8434295034856
:1013300005003385E50005072300050103D50700F7
:1013400005052390A700F1B7828029C50357050042
:1013500083572500998F3E87C207C1836373F600C8
:10136000328742074183814763E4E7000145828079
:10137000835605000356A5008507758E5441B29625
:1013800083C606002380D5008356050085062310FA
:10139000D500D9BF11458280238D01804111A38DD5
:1013A00001808545054506C6238E0180EF10601437
:1013B00085450945EF10E013B240854537054000EB
:1013C00041016F100013411106C622C426C237170F
:1013D0000040B1C18327870CA166D58F2324F70C69
:1013E000371400400327C40CB7040200458F23269E
:1013F000E40CEF1000218327840C2167B240C58FD5
:101400002324F40C8327840C9244D98F2324F40CD6
:101410002244410182808327C70CA166D58F2326F1
:10142000F70C7DBF011122CC26CA4AC84EC656C24F
:1014300006CE52C45AC0814A172900201309C9ADEB
:1014400017140020130444AD93090008A144138528
:101450000AFB81451375F50FBD3781450945A53751
:10146000139A0A0181454145135A0A01A93F014BCC
:1014700093170B019726002083C666AAC1831727FE
:101480000020035707AAADE2835689001376770040
:101490000D83B69793F7F70FB30647019207BD8AFE
:1014A000A297BE9603C50600854511CE569705073F
:1014B0003D8BBA9783C707008545A2075D8D3355DD
:1014C000C5401375F50F050BFD3DE3133BFB850A86
:1014D000E39F9AF6F2406244D2444249B249224A1A
:1014E000924A024B05618280BA975A9793F7F70F99
:1014F000218792070E07BA97A297D697854503C50D
:101500000700D1B7411106C68547631AF50081452A
:101510001305000A4D3D81451305800C09A819E902
:1015200081451305100A453581451305000CB2406D
:10153000410151BD89476316F50081451305000A35
:10154000DDB78D476316F50081451305100AD9B73D
:10155000B240410182800147171600201306C69B46
:10156000C145B306C70093070010FD17C2072380CB
:101570000600C183C106F5FB0507E314B7FE11C1E0
:1015800055B5828017270020130707998357C70096
:101590003E95420541819307F00F63E0A70483570E
:1015A000E700BE95C205C1819307F00763E7B70264
:1015B0009717002093874796120513D735003E955D
:1015C0009D898547B395B7003A95E2050307050065
:1015D000E18509C6D98D2300B500828093C5F5FF4A
:1015E000F98DD5BF5C418DCB0347850015C7834777
:1015F00095009DC303D6450005C283D6650089CEFC
:10160000839805001308F00F63481801839825009C
:101610001308F00763581801173500001305C5B605
:101620006F10201E039885003307E040634CE800EC
:10163000634A06010397A500B307F0406344F7002F
:1016400063D7E600173500001305C5B4D1BF0111FB
:1016500022CC26CA06CE4AC84EC683C7C5002E84F1
:10166000AA84C5CF0547639CE714014999A2831753
:10167000840063CBF9063E9763D8E9060317A400FC
:101680006344E90683566400BA96635FD90483C550
:101690008400B387F940C2073307E940C18342079A
:1016A00013D635009D89418393D6370091C1050635
:1016B0003307C70293C7F7FF9D8B3697D440420785
:1016C0004183369703470700B357F740858B89CF8F
:1016D00083552400035504000546CA954E95C2055E
:1016E0004205C1814181793D8509C20993D909012A
:1016F00003574400E3EDE9F60509420913590901CE
:10170000835764006369F900F2406244D24442495D
:10171000B249056182808149E1BF0149D5B783178C
:10172000840063CCF9063E9763D9E9060317A40049
:101730006345E90683566400BA966350D90683C5AB
:101740008400B387F940C2073307E940C1834207E9
:1017500013D635009D89418393D6370091C1050684
:101760003307C702035504008355240093C7F7FFCE
:101770009D8B4E95CA954205C20541813697D4404E
:1017800042074183369703470700C1810546B35797
:10179000F740858B91E30146F5338509C20993D95A
:1017A000090103574400E3ECE9F60509420913591E
:1017B000090183576400E379F9F48149DDB70947EA
:1017C0006393E70A014951A88317840063CBF906A4
:1017D0003E9763D8E9060317A4006344E9068356DD
:1017E0006400BA96635FD90483C58400B387F94067
:1017F000C2073307E940C183420713D635009D89EC
:10180000418393D6370091C105063307C70293C7BA
:10181000F7FF9D8B3697D4404207418336970347A5
:101820000700B357F740858B89EF83552400035594
:1018300004000546CA954E95C2054205C181418105
:1018400091338509C20993D9090103574400E3ED97
:10185000E9F6050942091359090183576400E37544
:10186000F9EA8149DDB70D476394E70A014959A8B0
:101870008317840063CCF9063E9763D9E906031702
:10188000A4006345E90683566400BA966350D906FE
:1018900083C58400B387F940C2073307E940C18399
:1018A000420713D635009D89418393D6370091C1F5
:1018B00005063307C702035504008355240093C768
:1018C000F7FF9D8B4E95CA954205C205418136971B
:1018D000D44042074183369703470700C181014640
:1018E000B357F740858B91E3054669398509C209ED
:1018F00093D9090103574400E3ECE9F605094209CD
:101900001359090183576400E370F9E08149DDB799
:101910001147E39BE7DE014979A88317840063C080
:10192000F9083E9763DDE9060317A4006349E90659
:1019300083566400BA966354D90683C58400B3877E
:10194000F940C2073307E940C183420713D6350087
:101950009D89418393D6370091C105063307C7029D
:1019600093C7F7FF9D8B3697D44042074183369744
:1019700003470700B357F740858B95C30315040051
:10198000831524004E95B3072501AE97858B81EB17
:10199000CA95C20542050546C1814181E5368509E2
:1019A000C20993D9090103574400E3E8E9F60509A0
:1019B00042091359090183576400E377F9D4814937
:1019C000DDB7630906145D71A2C456DA2A84B28AAF
:1019D0000808394686C6A6C2CAC04EDE52DC5AD8AE
:1019E0005ED6EF00B0563146A2854800EF00105693
:1019F00081449247138717003AC283870700A5EFF7
:101A000085801309E00593090008130AC400838B3D
:101A10000A0063850B0813F7FB0F930707FE13FB00
:101A2000F70F636E69053146D2854800EF0010520A
:101A30008347D1000346C1001448231BF1008347AC
:101A40004401231AC1001D8A8D830347540111C22A
:101A50008507B307F7020C084800B3876703B697FA
:101A60003EC44936835701010347C100BA97231882
:101A7000F100850A69BF8504C204C1809DBFE3FAF5
:101A8000E9FE3146A2854800038B1A00EF00104C96
:101A9000014793170701C18363ED9700B6402644C1
:101AA00096440649F259625AD25A425BB25B61616E
:101AB00082801C4093161700B697838607006396B2
:101AC000760183871700638467010507D9B78347C9
:101AD000D1008345C1005040231BF100834784009F
:101AE000231AB1009D898D838346940091C1850797
:101AF000B387F6020C084800890AB387E702B29759
:101B00003EC4CD34835701010347C100BA9723185F
:101B1000F100F5BD82800347450069C31C41DDCF5C
:101B20001C4983C6150083C55701B3D7B602B3F667
:101B3000B60281C6850793F7F70F85456304B602A1
:101B40008946630AD60483478500C9CB03479500BD
:101B500063F6E708850793F7F70F6303F706230497
:101B6000F5008280834665007D1763D0E602034757
:101B7000750085062303D5002305C500FD17E35432
:101B8000F7FC0507A303E5007DBF89472305F500A2
:101B9000231305004DBF8346650089CE834775003A
:101BA000FD162303D5002305C500D1DFFD17A303D0
:101BB000F50051BF7D172303E5002305B500FDB7F0
:101BC0008347A500230405000547639AE700834780
:101BD00055008507A302F50023050500828009470B
:101BE000E39CE7FE83475500FD17EDB75971B70732
:101BF000400093870708A6D2CECED6CAB289AA845F
:101C0000172600001306C659172500001305055BAB
:101C1000AE8A0C1086D6D2CCDAC8DEC6E6C26EDE3C
:101C20003ED2B68DA2D4CAD0E2C4EAC002D002D459
:101C3000230601027933856703D601C3938747CE14
:101C40003306F6029307007D294B97250000938504
:101C500025564808130A703E330ABA41973C0000E3
:101C6000938C0CF4973B0000938B8B1B3346F6024E
:101C70009307803E42064182B376F6023356F6025F
:101C800093074006B3D6F60233766603EF00B049F9
:101C90009307000650080C10172500001305055285
:101CA0002310F102393BBD47330AFA029307B01201
:101CB00002D4230601021307B02B334AFA02B3F70A
:101CC00069039A07E6976373B713138619009305A0
:101CD000C0033366B6021377F60F3AC23377670351
:101CE00075E76DEA93861A00B3E6B60213F9F60FAC
:101CF0003376690365E6F5E613841400E146336440
:101D0000D4020149337B640363100B0E130BE00311
:101D100037061A00137CFA0F3ECC930706073ED015
:101D200093071CFF3D4D9607B3C7A7030968B70685
:101D300020004108C1060C104808231E010142C6BC
:101D400036D23AC02315F1023EC4EFF0BF890247F4
:101D50008345D10148081A0766973ACC3387850333
:101D6000231501023347A70369072311E102034743
:101D7000C1012312E10233078D4193170701C1838B
:101D8000B385B7023EC02313B1020C10EFF09F855C
:101D9000B706200013772B00A247C10637061A00AA
:101DA00032483DEB8967C107231EF100A947B3D92B
:101DB000F902B7071A00938707063ED0B70720003D
:101DC000C1073ED29A09E6994ECC5DA82684568971
:101DD000014B3DBF26845689094B1DBF2684194BF4
:101DE00005BF2684394B2DB7794B1DB73ECCB707BD
:101DF0001A00938707073ED00967B70720004107FD
:101E0000C1070C104808231EE1003ED22684EFF0E3
:101E10006FFD5689014B79B72315F102A947B3D954
:101E2000F9021947130606060C104808231E010183
:101E300032D036D2B3F9E9029A09E6994ECCEFF0E6
:101E40006FFA1247A94723150102B357F702034758
:101E5000C1012312E10202479A07BE9C93070006C4
:101E60002310F1028347D10166CC338C8703334DB5
:101E7000AC03B307F702690D2311A1032313F10289
:101E80000C104808EFF00FF68D67938767C1231E8B
:101E9000F100B7072C00D907A9493ED2B3F73A039E
:101EA000130D400813774B00B387A703DE97630732
:101EB0000728937CFA0F9306C00213871CFF330791
:101EC000D7023D4C3ECCB70710009387A7040C10F7
:101ED00048083ED0334787032315E102EFF08FF027
:101EE0008347C1010D47B379390323150102B38735
:101EF000E7020347D101A1072310F102B3079703BB
:101F0000B3C78703330C9C41B389A903C1072311CD
:101F1000F102330CEC02DE994ECC231381030C103A
:101F20004808EFF02FECA946B3DADA02194D930C0A
:101F300040089307C0022313F1028347C1011377BE
:101F40008B0091078607B3FAAA03B38A9A03DE9A35
:101F5000630D071E0346D101137CFA0F13071CFF04
:101F60003307C702BD492310F1020C10C1474808CE
:101F70002311F10256CC334737032315E102EFF06A
:101F80006FE6A9463359D9028347C1010347D101FE
:101F900023150102910786072310F1023379A90363
:101FA000B3078703B3C73703B3898941330999035B
:101FB000C1072311F102B389E9025E994ACC2313C8
:101FC00031030C104808EFF0EFE19307C0022949F4
:101FD0002313F102B3F72403130C400813770B010A
:101FE0008346C101B3878703DE976307071603465D
:101FF000D101937AFA0F13871AFF3307C702BD493D
:102000003ECC0C10C14748082311F1022310D10225
:10201000334737032315E102EFF0CFDC8347C101DB
:102020000347D101337924032310F1022315010260
:10203000B3075703B3C73703B3895941330989033A
:10204000C1072311F102B389E9025E994ACC231337
:1020500031030C104808294CEFF0CFD8B3D48403D7
:102060008D4A930940089307C0022313F102137BA2
:102070000B02B3F45403B3843403DE9463050B0EF4
:102080000347D101137AFA0F93071AFFB387E702C8
:102090003D490C10480826CCB3C727032315F1028D
:1020A000B70710003ED0EFF0EFD33354840303475B
:1020B000D1012315010223100102B3074703330A9C
:1020C000494133745403B3C7270333043403C107AE
:1020D0002311F102330AEA02A29B5ECC23134103CF
:1020E0000C104808EFF00FD09307003263F9B703E4
:1020F00097370000938747253ECC8D67938787C02D
:10210000231EF100B70710009387C7023ED0B70720
:102110002C00A1070C1048083ED2EFF0AFCCB6500F
:10212000265496540659F649664AD64A464BB64B4B
:10213000264C964C064DF25D656182803ECCB70719
:1021400010009387A7043ED0D9BB2310F102C147EA
:1021500056CC2311F102B5B53ECCC1472310D102B4
:102160002311F102FDB5B707100026CC3ED08DBF7C
:10217000011122CC371400408327840C4EC6B709C6
:10218000020006CE26CA4AC8B3E737012324F40C5E
:102190008327840CC1642169C58F2324F40C832612
:1021A000840C8D4537050200B3E626012324D40CA8
:1021B00089268D454165352E8D4521651D2E8D4520
:1021C0001965052E83568401B7470040214793E6E1
:1021D0000610231CD400A381E70009472380E700F1
:1021E000130700062380E70083C617000D4593E61A
:1021F0000601A380D70083C6170093F6E60FA380DD
:10220000D700592E97170020938707D11307202056
:102210002392E700238307000327840CB70680007E
:102220009386061094C33367370123A4070023A6BF
:1022300007002324E40C8327840C2945B3E72701F6
:102240002324F40C8327840CC58F2324F40C97E0FB
:10225000FF1FE78000598327C40C13058007C58F33
:102260002326F40C97E0FF1FE780A0578327840CF8
:1022700081451305E00ADD8C2324940CEFF0AF9424
:1022800081451305500DEFF00F94814513050005AE
:10229000EFF06F9381451305800AEFF0CF928145EF
:1022A0001305F003EFF02F9281451305300DEFF089
:1022B0008F9181450145EFF00F9181451305000491
:1022C000EFF06F9081451305D008EFF0CF8F814577
:1022D0005145EFF04F8F814513050002EFF0AF8EAF
:1022E00081450945EFF02F8E81451305100AEFF067
:1022F0008F8D81451305800CEFF0EF8C8145130520
:10230000A00DEFF04F8C81454945EFF0CF8B814513
:1023100013051008EFF02F8B81451305F00EEFF039
:102320008F8A81451305900DEFF0EF8981451305E4
:10233000100FEFF04F8981451305B00DEFF0AF8816
:10234000814513050003EFF00F8881451305400A0E
:10235000EFF06F8781451305600AEFF0CF86130514
:10236000F00A8145EFF02F866244F240D2444249A0
:10237000B249014505616FF00F9EB71700408546D1
:1023800003C8870583C89705238CD70403C797051F
:102390001378F80F93F8F80F13678700A38CE704FE
:1023A00003C797051377B70FA38CE704238DD704D2
:1023B000371700408347A7051306A705858BFDFB4C
:1023C00005654147B7150040054E1303F5FF23008F
:1023D000C60183460600858AEDFE83D6C5057D17B6
:1023E000420793C6F6FFB3F666004183B69765F3DE
:1023F000A1079183130505801D8DA38C150542054A
:10240000238C050541858280B717004003C77705F7
:102410001A0592054D8D1377E70F13653500A38BD1
:10242000E7041375F50FA38CA70482800547B7173F
:102430000040238DE704371700408347A705858BAD
:10244000EDFF0355C705520551818280914763EE28
:10245000B702173700001307A7078A05BA959C41F2
:10246000BA978287B717004003A7470B1345F5FFBC
:10247000698F23AAE70A03A7070B698F23A8E70A36
:1024800003A7070A798D23A0A70A8280B717004007
:1024900083A6470B1347F5FFF98E23AAD70A83A615
:1024A000070B558D23A8A70A83A6070A758F23A0BB
:1024B000E70A8280B717004003A7470B498F23AA7A
:1024C000E70A03A7070B1345F5FF45BFB717004001
:1024D00083A6470B1347F5FF758F23AAE70A03A7C7
:1024E000070A598D4DB7B717004003A7470B498F0F
:1024F000EDB7914763EEB70217370000130787FE69
:102500008A05BA959C41BA978287B717004003A7FE
:10251000470D1345F5FF698F23AAE70C03A7070DA5
:10252000698F23A8E70C03A7070C798D23A0A70CBC
:102530008280B717004083A6470D1347F5FFF98E39
:1025400023AAD70C83A6070D558D23A8A70C83A615
:10255000070C758F23A0E70C8280B717004003A7F4
:10256000470D498F23AAE70C03A7070D1345F5FF75
:1025700045BFB717004083A6470D1347F5FF758F7A
:1025800023AAE70C03A7070C598D4DB7B7170040D6
:1025900003A7470D498FEDB785476309F50201C9C8
:1025A00089476302F5048D476306F5048280B747C7
:1025B000004003C707001377770F2380E70003C7A6
:1025C000170013670702A380E7008280B747004027
:1025D00003C707001377770F2380E70003C71700AF
:1025E0001377F70DCDB7B747004003C70700136750
:1025F0008700E1B7B747004003C7070013678700AC
:10260000E1BFB747004003C707001377F70E2380E9
:10261000E7002382A700374700408347670093F70E
:102620000704E5DF8280B717004003D58700420525
:1026300041819377050491EB9377F5013755E801D4
:10264000130505803345F50282809377050C130747
:1026500000046397E7009377F50137459C1CCDB7DD
:102660002165130505D08280814737370040A14698
:1026700063C4C700328582800345B740E38EA6FE5F
:102680003385F5000345050085072304A740CDB732
:10269000B727004023A6A74009472380E7401147FA
:1026A0002380E7408280411122C406C62A84A53FC8
:1026B0002947B307E502B2408D83B3D7870222448E
:1026C0009507B3D7E70237370040C207C183231607
:1026D000F74041018280716541111305052006C64E
:1026E000D937B7370040130770F82381E7400D470B
:1026F000A381E74013070004A380E7400547238731
:10270000E740B2404101828037370040834727408D
:102710001A0593F7F703C98F93F7F70F2301F740D3
:102720008280B737004003C7174019C9D98DA380ED
:10273000B74003C70740136787002380E7408280C4
:1027400093C5F5FFF98DA380B7408280B3C7A5007C
:102750008D8B3307C50081E78D4763EEC700AA87DD
:102760006370E50A83C6050085078505A38FD7FE3C
:10277000E3EAE7FE828093763500AA8791CA83C692
:10278000050085078505A38FD7FE93F63700FDB7B3
:102790009376C7FF138606FE63F0C70683A3050082
:1027A00083A2450083AF850003AFC50083AE05015A
:1027B00003AE450103A3850183A8C50193854502A6
:1027C00023A0770003A8C5FF23A2570023A4F70185
:1027D00023A6E70123A8D70123AAC70123AC6700DA
:1027E00023AE17019387470223AE07FF75B79041C9
:1027F0009107910523AEC7FEE3EBD7FEE3E4E7F6CE
:10280000828039713EDA2ED232D436D63AD842DCC2
:1028100046DE9387818022CC804326CA06CEAA84D6
:1028200009C41C4C99E32285AD230C445410268620
:10283000228536C6EF001052F2406244D244216134
:102840008280011126CA4AC806CE22CC4EC652C486
:10285000AA842E8901C51C4D91E3252B9C4C8044F4
:1028600099E326853D23973700009387E7CA631CC9
:10287000F402C0408357C400A18BB1C71C48A1C754
:10288000FD59294A1C4483450900FD17B1E91CC4C0
:1028900063DE07062286A9452685C928FD576308F9
:1028A000F502294535A0973700009387E7C86314E0
:1028B000F4008044C1B7973700009387E7C3E31B58
:1028C000F4FAC04445BFA28526858D2255D97D5591
:1028D000F2406244D2444249B249224A05618280B0
:1028E0001CC4050963D70700184C63CBE700638954
:1028F00045011C401387170018C02380B70059B743
:1029000022862685A520E31F35F7D1B71C40138703
:10291000170018C029472380E70061B7938781809B
:10292000AA85884339BF35713ECBB707008093C76E
:10293000F7FF3ECE3EC8C1779387872032C536C7A2
:102940003AC942CD46CF3ECA938781802AC42ACC59
:10295000884334012E862C0086DE36C2EF0010112B
:10296000A24723800700F6500D618280011122CC1E
:1029700026CA4AC806CE4EC6AA842E89328401C50C
:102980001C4D91E33921973700009387E7B863190D
:10299000F406C0401C4C1CC48357C400A18BC9C39F
:1029A0001C48BDCF1C4808409379F90F1379F90FE3
:1029B0001D8D5C486346F500A2852685652C2DE5B6
:1029C0001C440505FD171CC41C401387170018C0C4
:1029D000238037015C486389A7008357C400858B37
:1029E00081CBA9476316F900A285268561240DEDE8
:1029F000F24062444A85D2444249B249056182802C
:102A000097370000938747B36314F400804459B7A5
:102A100097370000938747AEE31EF4F6C0449DBF8E
:102A2000A285268521203DDD7D59D9B741119387A7
:102A3000818026C2844322C44AC006C62A892E84C5
:102A400089C49C4C99E32685A92697370000938773
:102A5000A7AC631CF402C0400317C400931707011E
:102A6000C18393F68700B5EE93F607019DEEA54767
:102A70002320F900136707042316E4007D55B240B4
:102A80002244924402494101828097370000938793
:102A9000A7AA6314F4008044C1B797370000938756
:102AA000A7A5E31BF4FAC04445BF918B8DC74C58D2
:102AB00089C9930744046384F5004A859123232A36
:102AC00004028357C4002322040093F7B7FD2316A2
:102AD000F4001C481CC08357C40093E787002316EA
:102AE000F4001C4881EF8357C4001307002093F7BC
:102AF00007286385E700A2854A85A5218357C4007E
:102B000013F7170005C75C4823240400B307F040FF
:102B10001CCC1C480145A5F78317C40013F7070810
:102B200039DF93E707042316F40089BF898B014737
:102B300091E3584818C4F1BF83D7C500011122CCD6
:102B400026CA06CE4AC84EC613F78700AA842E842A
:102B500071EFD841634DE000B841634AE0000145A0
:102B6000F2406244D2444249B249056182805854DD
:102B70007DD703A904009396370123A0040063DDE9
:102B8000060670488357C400918B99C75C401D8E20
:102B90005C5899C33C401D8E5C540C508146268580
:102BA0008297FD570357C400631DF5009440F54715
:102BB00063E8D706B70740208507B3D7D700858BD2
:102BC000A5C31C48232204001CC09317370163D8F7
:102BD0000700FD576314F5009C4091E368C84C580A
:102BE00023A02401ADDD930744046384F50026850A
:102BF0000129232A0402A5B70C50014685462685E3
:102C00000297FD572A86E31FF5F69C40A5DF75471E
:102C10006385E70059476394E70423A0240181B743
:102C2000136707042316E4007D551DBF83A9050122
:102C3000E38709F203A905008D8B23A03501330931
:102C40003941014791E3D84918C4E35A20F11C5493
:102C50000C50CA864E86268582976349A00083570A
:102C6000C40093E707042316F4007DBFAA99330933
:102C7000A940E1BF9C49B9CF011122CC06CE2A84DC
:102C800011C51C4D81E72EC62922B2459737000099
:102C900093878788639BF5004C408397C50095C751
:102CA00022856244F240056141BD97370000938759
:102CB000A7886394F5000C44CDB79737000093873D
:102CC000A783E39CF5FC4C44C9BFF2406244014534
:102CD0000561828001458280411122C406C62A8492
:102CE0002316B5002317C500232005002322050065
:102CF000232405002322050623280500232A050096
:102D0000232C0500214681451305C505EFD03FFD65
:102D100097170000938727EC5CD0971700009387E4
:102D200087EE1CD4971700009387C7F25CD49717DF
:102D30000000938787F500D01CD8B240224441019F
:102D4000828097050000938525F389AA411126C248
:102D5000130680069384F5FFB384C4024AC02E890B
:102D600022C406C69385440781262A8401CD2320E8
:102D7000050023222501310508C4138684068145F8
:102D8000EFD0FFF52285B24022449244024941012E
:102D900082801C4DBDE3411106C622C49707000086
:102DA000938767FA1CD5972700009387A77E9C43DB
:102DB0002324050423260504232805046314F500B1
:102DC00085471CCD2A841D2848C02285052808C4B3
:102DD00022852D2048C4484001469145F53D0844D0
:102DE0000546A545D53D48440946C945F5358547BD
:102DF0001CCCB2402244410182808280411197273D
:102E000000009387277926C284434AC006C69C4C9B
:102E100022C42A8999E32685AD3F938484048044A3
:102E2000DC40FD1763D607009C40B9CF8440C5BF86
:102E30000317C40039E7C17785072322040623203E
:102E4000040023220400232404005CC4232804007B
:102E5000232A0400232C0400214681451305C405C0
:102E6000EFD0FFE7232A0402232C040223240404C6
:102E7000232604042285B24022449244024941019F
:102E800082801304840671BF91454A85C13588C08C
:102E900051FDB1472320F9000144E9BF797122D4E3
:102EA0004AD052CC56CA5AC85EC606D626D24ECE94
:102EB0002A8AAE8A130485040149054BFD5B09EC9F
:102EC000B25022544A8592540259F249624AD24A77
:102ED000424BB24B45618280044483294400FD1972
:102EE00063D409000040E1BF83D7C400637BFB00CB
:102EF0008397E40063877701A6855285829A3369B8
:102F0000A90093848406E1BF1971A6DAAE84839583
:102F1000E500A2DC86DE328463DC050083D7C400D2
:102F200023A0060093F7070885E7930700401DA03C
:102F3000300836C6EF00F05BB246E34105FE72474B
:102F4000BD67F98F7977BA9793B717009CC2F1BF25
:102F5000930700041CC0F6506654D654014509611D
:102F6000828083D7C500011122CC06CE26CA4AC86A
:102F7000898B2E8489CF930774041CC01CC8854795
:102F80005CC8F2406244D2444249056182807400C8
:102F90003000AA84953FA2452A892685312201ED79
:102FA0008317C40013F7072069FFF19B93E72700FD
:102FB0002316F400C9B7970700009387C7D89CD49D
:102FC0008357C40008C008C893E707082316F40015
:102FD000A2475CC8B24791CF8315E4002685EF0075
:102FE000705401C98357C400F19B93E7170023165F
:102FF000F4008357C4003369F9002316240151B744
:10300000DDC183A7C5FF411122C406C626C21384B1
:10301000C5FF63D307003E94AA84EF00305D938719
:1030200081829C4381EF2322040023A481822244D5
:10303000B2402685924441016F00705B637EF400CC
:1030400014403307D4006396E7009843DC43369777
:1030500018C05CC0D9BFBA87D84319C3E37DE4FE6A
:1030600094433386D700631F86001040B29694C302
:103070003386D700E31DC7FA10435843B29694C372
:10308000D8C375B76375C400B1479CC04DB7104035
:10309000B306C4006316D70014435843B29614C055
:1030A00058C0C0C369B78280011126CA9384350015
:1030B000F19806CE22CC4AC84EC6A104B14763F5AA
:1030C000F404B14463E4B4042A89EF0030529387D6
:1030D000818298433A8429E49387C1829C4399E78B
:1030E00081454A85EF00F02B23A6A182A6854A855B
:1030F000EF00302BFD5963193507B1472320F90044
:103100004A85EF00D04E29A0E3DE04FAB1471CC186
:103110000145F2406244D2444249B249056182808D
:103120001C40858F63CF0702AD4663F6F6001CC0D6
:103130003E9404C031A05C406313870223A4F18253
:103140004A85EF00D04A1305B40093074400619903
:103150003307F5405DDF3A94898F1CC05DBF5CC3C7
:10316000C5B72287404085BF130435007198E3023C
:1031700085FCB305A4404A85EF00B022E31B35FB74
:10318000ADBF01114AC803A9850022CC52C45AC060
:1031900006CE26CA4EC656C22E84328B368A63EDC0
:1031A000260983D7C50013F7074849C704408C494F
:1031B0005848AA8AB389B4408D44B384E4020947CD
:1031C000B3C4E402138716004E9763F3E400BA8495
:1031D00093F70740D1C3A6855685F9352A890DE5B1
:1031E000B14723A0FA008357C4007D5593E7070435
:1031F0002316F400F2406244D2444249B249224AC2
:10320000924A024B056182800C484E86EFF00FD443
:103210008357C40093F7F7B793E707082316F40022
:103220002328240144C84E99B38434412320240127
:1032300004C4528963732A01528908404A86DA8598
:10324000EF0030361C440145B38727411CC41C40A5
:103250003E992320240179BF26865685EF005039F8
:103260002A895DFD0C485685613B9DBF83D7C5000B
:10327000717126D34AD14ECF06D722D552CD56CB27
:103280005AC95EC762C566C393F70708AA892E8923
:10329000B284B1C39C49A1E39305000436C6293525
:1032A0002320A9002328A900B24615E1B14723A095
:1032B000F9007D55BA502A549A540A59FA496A4A73
:1032C000DA4A4A4BBA4B2A4C9A4C4D61828093079A
:1032D0000004232AF90093070002A30CF1029307CC
:1032E000000302DA230DF10236CE930B5002972A27
:1032F0000000938A6A26054C294B268483470400E4
:1033000099C3639C7709B30C9440638D0C00E686E7
:103310002686CA854E85B535FD576304F51AD25603
:10332000E69636DA83470400638D0718FD57930449
:10333000140002D002D63ED202D4A301010682DCE0
:1033400083C5040015465685EF001024138414002D
:10335000825731E513F7070109C713070002A301DC
:10336000E10613F7870009C71307B002A301E106BE
:1033700083C604001307A002638BE602B2572684BB
:10338000814625460347040093051400130707FDF3
:103390006374E6068DC63ED61DA0050485B73305C9
:1033A00055413315AC00C98F3ED0A28451BF72473E
:1033B00093064700184336CE634907023AD60347BF
:1033C00004009307E002631FF70403471400930708
:1033D000A002631BF702F2470904138747009C43CE
:1033E0003ACE63C107023ED235A83307E04093E7E7
:1033F00027003AD63ED0E1B7B387670385462E84CF
:10340000BA9749B7FD57C5B7050402D2814681472F
:1034100025460347040093051400130707FD63784E
:10342000E606F1F2834504000D461725000013055A
:103430002513EF00701511CD9727000093874712D1
:103440001D8D93070004B397A700025505045D8DF9
:103450002AD083450400194617250000130585105E
:1034600093041400230CB102EF00101225C597D766
:10347000FFFF938727B995E70257F24713770710A5
:1034800009CF91073ECED257D2973EDABDB5B3876A
:10349000670385462E84BA97ADBF9D07E19BA107C0
:1034A000D5B77808970600009386E6CD4A860C10BB
:1034B0004E8597000000E7000000FD572A8AE314BC
:1034C000F5FC8357C9007D5593F70704E39407DEA5
:1034D0005255CDB37808970600009386C6CA4A862F
:1034E0000C104E851929D1BF1C46FD171CC663DA86
:1034F0000700184E63C5E700A9476394F5006FF015
:10350000EFC61C422E851387170018C22380B70010
:103510008280011122CC26CA4AC84EC652C406CEA9
:103520002A89AE893284B304D6007D5A631494008C
:10353000014509A8834504004E864A857537050470
:10354000E31645FFF2406244D2444249B249224A5E
:1035500005618280357122CD26CB4AC94EC706CF80
:1035600052C556C35AC1DEDEE2DCE6DAAA89AE8471
:103570003289368409C51C4D99E3EFF09F81972766
:103580000000938767F9639BF40C83A4490083D7F9
:10359000C400A18BF5C79C48E5C793070002A304AC
:1035A000F1029307000302D22305F10222C6930B16
:1035B0005002972A0000938A2AFA054C294B4A8424
:1035C0008347040099C36390770FB30C2441638D44
:1035D0000C00E6864A86A6854E85253FFD57630684
:1035E000F51E9256E69636D283470400638F071C79
:1035F000FD571309140002C802CE3ECA02CCA3092B
:10360000010482D48345090015465685B52F13045D
:103610001900C24759E913F7070109C71307000248
:10362000A309E10413F7870009C71307B002A30930
:10363000E104834609001307A0026380E608F2470D
:103640004A84814625460347040093051400130766
:1036500007FD6379E60AB5CA3ECE85A89727000024
:10366000938787ED6395F40083A489000DB79727AE
:103670000000938767E8E39CF4F083A4C90001BFCE
:10368000A6854E85EFF08FBA09D97D55FA406A4478
:10369000DA444A49BA492A4A9A4A0A4BF65B665CB6
:1036A000D65C0D618280050421BF33055541331579
:1036B000AC00C98F3EC82289B1B732479306470094
:1036C000184336C6634907023ACE034704009307FE
:1036D000E002631FF704034714009307A002631B73
:1036E000F702B2470904138747009C433AC663C1F7
:1036F00007023ECA35A83307E04093E727003ACED9
:103700003EC8E1B7B387670385462E84BA9725BFC5
:10371000FD57C5B7050402CA8146814725460347C0
:10372000040093051400130707FD6376E606F1F223
:10373000834504000D4617250000130565E2A92501
:1037400011CD972700009387A7E11D8D93070004F3
:10375000B397A700424505045D8D2AC88345040040
:103760001946172500001305E5DF1309140023048B
:10377000B102192D3DC197D7FFFF9387A78895E721
:103780004247B2471377071009CF91073EC69257B9
:10379000D2973ED22DB5B387670385462E84BA975C
:1037A000BDBF9D07E19BA107D5B778009706000034
:1037B000938666D626860C084E8597000000E700A3
:1037C0000000FD572A8AE314F5FC83D7C40093F761
:1037D0000704E39C07EA125555BD780097060000E0
:1037E000938666D326860C084E85012AD9BF797147
:1037F00056CA9C49BA8A984522D426D24ECE52CC7B
:1038000006D64AD05AC85EC6AA892E84B284368AA1
:1038100063D3E700BA879CC00347340419C3850704
:103820009CC01C4093F7070281C79C4089079CC03D
:103830000329040013796900631A0900130B94012A
:10384000FD5B5C449840998F634CF9041C408346AF
:10385000340493F70702B336D000A5EB1306340403
:10386000D2854E85829AFD576303F5041C401146AC
:103870009840998B544481446397C700B384E640D1
:1038800063D3040081441C4418486354F700998FA3
:10389000BE94014969047D5B63982405014509A82C
:1038A00085465A86D2854E85829A631E75017D555E
:1038B000B250225492540259F249624AD24A424BBF
:1038C000B24B456182800509ADBF3307D4001306B2
:1038D0000003A301C7040347540493871600A2976B
:1038E0008906A381E7049DBF85462286D2854E8541
:1038F000829AE30E65FB050945B7797122D426D279
:103900004AD04ECE06D652CC56CA5AC8B68983C6BD
:103910008501930790063289AA842E841386350484
:10392000638DF60263E2D706930780056387F61876
:1039300063EDD7006380062293073004638EF60A96
:10394000930A24042301D404C9A093073006638595
:10395000F60A93074006E395F6FE1C40084393F6EB
:10396000070893054500C5C61C410CC363D8070072
:103970001307D002B307F040A301E4049726000028
:103980009386C6BE29476DA8930700076383F61682
:1039900063E5D7029307E006638AF6189307F006FB
:1039A000E390F6FA0C401C4313F805081385470012
:1039B0006307080608C39C438DA893075007E38359
:1039C000F6FE93078007638AF61293073007E399A0
:1039D000F6F61C43D04181459386470014C383AA61
:1039E00007005685552601C53305554148C05C4042
:1039F0001CC8A301040471A81C43930A24049386E1
:103A000047009C4314C32301F4048547D5B793F6BC
:103A100007041C410CC3B9DAC207C18781BF93F503
:103A2000050408C3C9D983D707001307F0066387C5
:103A3000E60E97260000938666B32947A301040487
:103A40004C400CC463C5050008406D9908C099E35B
:103A5000B28A91CDB28AB3F5E702FD1AB69583C555
:103A600005002380BA00B3D5E70263FFE70AA14748
:103A7000631EF7001C40858B91CB58401C4863C7E0
:103A8000E70093070003A38FFAFEFD1A33065641A1
:103A900010C84E87CA867000A2852685893B7D5A4C
:103AA000631E450B7D55B250225492540259F2497F
:103AB000624AD24A424B45618280A382D50497264E
:103AC00000009386A6AA0C40084313F805081C4181
:103AD0001105630D080208C313F7150001C793E52C
:103AE00005020CC04147B9FB0C4093F5F5FD0CC035
:103AF000B1B79C4193E707029CC193078007A302DB
:103B0000F404972600009386A6A775BF13F8050452
:103B100008C3E30308FCC207C1837DBF97260000EA
:103B20009386C6A4214719BFAE8735B794411C437D
:103B3000CC4913F80608138547006306080008C33C
:103B40009C438CC301A808C393F606049C43F5DA92
:103B50002390B70023280400B28A25BF1448568654
:103B6000CA8526858299E30F45F31C40898B8DE732
:103B7000B2474844E359F5F23E8535B78546568647
:103B8000CA8526858299E30F65F1050A5C443247B0
:103B9000998FE345FAFEE9BF014A930A94017D5BE0
:103BA000F5B7411122C42A842E8597F7FF1F23AD54
:103BB000073606C63526FD576319F50097F7FF1F30
:103BC000938787369C4391C31CC0B2402244410175
:103BD0008280411122C42E848395E50006C6AD245F
:103BE000634905007C48AA977CC8B2402244410141
:103BF00082808357C4007D777D17F98F2316F400E8
:103C0000EDB783D7C500011122CC26CA4AC84EC6DB
:103C100006CE93F70710AA842E843289B68991C7FD
:103C20008395E5008946014635228357C4007D7798
:103C30007D17F98F2316F4008315E4006244F240E7
:103C4000CE864A86B24942492685D24405613DA8BE
:103C5000411122C42E848395E50006C6E528FD5750
:103C60000357C400631BF500FD77FD17F98F23167A
:103C7000F400B2402244410182808567D98F231627
:103C8000F40068C8FDB78395E50025A8411122C45A
:103C90002A842E85B285368697F7FF1F23A607282C
:103CA00006C6EFE07F9CFD576319F50097F7FF1FED
:103CB000938787279C4391C31CC0B2402244410193
:103CC0008280411122C42A842E8597F7FF1F23ADDD
:103CD000072406C6752AFD576319F50097F7FF1FDD
:103CE000938787249C4391C31CC0B2402244410166
:103CF0008280411122C42A842E85B28597F7FF1F46
:103D000023A4072206C6692AFD576319F50097F711
:103D1000FF1F938767219C4391C31CC0B24022447C
:103D200041018280411122C42A842E8597F7FF1F0A
:103D300023AC071E06C6AD2AFD576319F50097F799
:103D4000FF1F9387671E9C4391C31CC0B24022444F
:103D500041018280411122C42A842E85B285368693
:103D600097F7FF1F23A2071C06C6992AFD57631960
:103D7000F50097F7FF1F9387271B9C4391C31CC037
:103D8000B24022444101828093F5F50F2A966314D4
:103D9000C5000145828083470500E38DB7FE050518
:103DA000FDB763F3A504B386C500637FD5029345D1
:103DB000F6FF8147FD176393F50082803387F60095
:103DC000034807003387C7002A9723000701DDB7A0
:103DD0003387F500834607003307F5008507230086
:103DE000D700E317F6FE82808147E5BF828082809C
:103DF00081E5B2856FF04FAB011122CC06CE26CA09
:103E00004AC84EC6328401EEEFF08F9F0149F2405E
:103E100062444A85D2444249B24905618280AE84F7
:103E2000AA89A9282689E37485FEA2854E85EFF02C
:103E3000AFA72A8969DDA6852286EFE03F91A68596
:103E40004E85EFF0EF9BE1B7411122C42A842E8505
:103E5000B285368697F7FF1F23A8070C06C68D2864
:103E6000FD576319F50097F7FF1F9387E70B9C43F6
:103E700091C31CC0B24022444101828083A7C5FF88
:103E80001385C7FF63D50700AA959C413E958280A4
:103E90009307800517F7FF1F2328F7087D558280B9
:103EA0009307800517F7FF1F2320F7087D558280B1
:103EB0009307800517F7FF1F2328F7060145828027
:103EC0009307800517F7FF1F2320F7067D55828093
:103ED0009307800517F7FF1F2328F7047D5582807D
:103EE000938701839C4391C73E9523A8A1823E8579
:103EF000828097F7FF1F938767033E9523A8A182CF
:103F00003E85828073797374656D2072756E7E7ED6
:103F10007E0D0000B5A5BBF700000000CBABBBF7E2
:103F200000000000B3A4B0B400000000C1ACBBF7B7
:103F300000000000D7F3D0FD00000000D3D2D0FD78
:103F40000000000068656C6C6F20776F726C640A0B
:103F500000000000657272207061636B210D0A0021
:103F600064617461206C656E20657272210D0A00B7
:103F7000636865636B2073756D20657272210D0A2D
:103F80000000000000C1814001C0804101C08041AB
:103F900000C1814001C0804100C1814000C1814019
:103FA00001C0804101C0804100C1814000C1814009
:103FB00001C0804100C1814001C0804101C08041F9
:103FC00000C1814001C0804100C1814000C18140E9
:103FD00001C0804100C1814001C0804101C08041D9
:103FE00000C1814000C1814001C0804101C08041C9
:103FF00000C1814001C0804100C1814000C18140B9
:1040000001C0804101C0804100C1814000C18140A8
:1040100001C0804100C1814001C0804101C0804198
:1040200000C1814000C1814001C0804101C0804188
:1040300000C1814001C0804100C1814000C1814078
:1040400001C0804100C1814001C0804101C0804168
:1040500000C1814001C0804100C1814000C1814058
:1040600001C0804101C0804100C1814000C1814048
:1040700001C0804100C1814001C0804101C0804138
:1040800000C1814000C0C101C30302C2C60607C708
:1040900005C5C404CC0C0DCD0FCFCE0E0ACACB0B78
:1040A000C90908C8D81819D91BDBDA1A1EDEDF1FA8
:1040B000DD1D1CDC14D4D515D71716D6D21213D398
:1040C00011D1D010F03031F133F3F23236F6F73748
:1040D000F53534F43CFCFD3DFF3F3EFEFA3A3BFB38
:1040E00039F9F83828E8E929EB2B2AEAEE2E2FEFE8
:1040F0002DEDEC2CE42425E527E7E62622E2E32358
:10410000E12120E0A06061A163A3A26266A6A76787
:10411000A56564A46CACAD6DAF6F6EAEAA6A6BABF7
:1041200069A9A86878B8B979BB7B7ABABE7E7FBF27
:104130007DBDBC7CB47475B577B7B67672B2B37317
:10414000B17170B0509091519353529296565797C7
:10415000559594549C5C5D9D5F9F9E5E5A9A9B5BB7
:1041600099595898884849894B8B8A4A4E8E8F4F67
:104170008D4D4C8C448485458747468682424383D7
:1041800041818040B3DFB4E7B4EDCEF3000000001E
:10419000C7F8D3F2B4EDCEF30000000032332E3175
:1041A000322E32322C467269000000002531642E16
:1041B0002531645600000000D04100000C42000090
:1041C0001010000000000000AC45000008100000C6
:1041D000CAB1BCE4C9E8D6C3C8D5C6DAC1C1B6C83D
:1041E000CFD4CABEC4A3CABDD3EFD1D4C2F6B3E5FF
:1041F000C6B5C2CAD5BCBFD5B1C8D0DDC3DFD7D420
:10420000B6AFB8FCD0C2B9D8D3DA000000080008B5
:104210007C08440845FE440844087C084488444817
:10422000444844087C08440800280010200013FC7F
:104230001004400447C444444444444447C44444F0
:104240004444444447C4400440144008000021F062
:10425000111011100110020EF40013F811081110C2
:10426000109014A0184010A003180C067FFC4444C2
:104270007FFC01007FFC01001FF010101FF01010E8
:104280001FF010101FF01010FFFE000000001FF0C4
:10429000101010101010101010101FF0101010102F
:1042A00010101010101010101FF010102200227C9F
:1042B0007F44224422443E7C224422443E44227CC9
:1042C0002244FF4404842284411482080200010035
:1042D0007FFC00001FF010101FF000007FFE400266
:1042E0008FE40820082010222022C01E0100008038
:1042F0003FFE222022203FFC2220222023E020001B
:104300002FF02410422041C08630380E00001FF0EC
:10431000101010101FF0101010101FF00440444433
:104320002444144814500440FFFE000000003FF8ED
:104330000000000000000000FFFE0100010011105D
:104340001108210441028102050002001110111020
:1043500017FC1110FC0013F832083BF8560853F80C
:10436000904017FC10A011101208140600480044D9
:1043700000440040FFFE004000403E40084008402E
:10438000082008220F12780A20060002000047FCCD
:104390002040204003F80088E08827FE200020000D
:1043A00023F822082A08320823F802080200010034
:1043B000FFFE000000003FF8000000003FF8000092
:1043C00000003FF8200820083FF82008004078202F
:1043D000481049E0482278344BB848B048A878A83B
:1043E000492849244A244C2248A098400040404093
:1043F0002040204007FC0444144414442444E44472
:1044000027FC24442040204020400040100011FEA2
:1044100050205C4051FC5104FF24012411245524F8
:1044200055245544845008883104C202020001001A
:104430007FFC020044442F88111022484FE40020E2
:104440000100FFFE01000100010001000100010068
:10445000010001FE01000100010001003FF82008F9
:1044600020082008200820083FF82008020001004A
:104470007FFE400288241010200800001FF0010079
:1044800001000100010001007FFC0000008020808D
:1044900020802084208820903EA020C02080208082
:1044A0002080208226823882207E0000084008403A
:1044B0000840104017FE304030E050E0915011505D
:1044C000124814441842104010401040000001FCF3
:1044D0007D04450445047DFC452045207DFE4520A6
:1044E000452045107D12454A018601020100020067
:1044F00004001FF01010101010101FF010101010FA
:104500001FF01010101010101FF01010004000408D
:104510007C40004001FC0044FE44204420442084B0
:1045200048844484FD044504022804100000FFFE72
:10453000010001003FF8210821083FF82108210867
:104540003FF811000A00060019C0E03E1000080400
:104550007F78004022401440FF7E084808487F488A
:1045600008482A48494888882888110810100810E7
:10457000082000003FF8010001000100FFFE0100DB
:1045800002800280044008203018C00600003FF876
:104590000100010001000100FFFE01000100010017
:1045A0000100010001000100050002000000000000
:1045B00000000000000000000000000000000010EB
:1045C0001010101010100000101000000012242411
:1045D0004800000000000000000000000000001281
:1045E00012127E2424247E24242400000000083C8F
:1045F0004A4A48380C0A0A4A4A3C08080000004463
:10460000A4A8A8B0541A2A2A4A4400000000003086
:10461000484848506EA49498897600000060202095
:10462000400000000000000000000000000204083C
:10463000081010101010100808040200004020108C
:1046400010080808080808101020400000000000AA
:104650001010D63838D610100000000000000000FE
:10466000000808087F08080800000000000000009B
:10467000000000000000000060202040000000005A
:10468000000000007E0000000000000000000000AC
:104690000000000000000000606000000000020454
:1046A00004040808101010202040400000000018EA
:1046B00024424242424242422418000000000008C4
:1046C0003808080808080808083E00000000003CF8
:1046D0004242420204081020427E00000000003CDA
:1046E0004242020418040242423C0000000000045E
:1046F0000C0C142424447F04041F00000000007EDE
:104700004040407844020242443800000000001853
:104710002440405C62424242221C00000000007EB5
:104720004204040808101010101000000000003CA3
:104730004242422418244242423C00000000003819
:1047400044424242463A020224180000000000009F
:1047500000001818000000001818000000000000F9
:104760000000001000000000001010100000000207
:10477000040810204020100804020000000000007F
:1047800000007E00007E00000000000000000040ED
:104790002010080402040810204000000000003C23
:1047A000424262040808080018180000000000389F
:1047B000445AAAAAAAAAAA5C423C0000000000101F
:1047C00010182828243C444242E70000000000F86A
:1047D000444444784442424244F800000000003E11
:1047E000424280808080804244380000000000F80F
:1047F000444242424242424244F80000000000FC6F
:10480000424848784848404242FC0000000000FC12
:10481000424848784848404040E000000000003CE2
:1048200044448080808E844444380000000000E7C7
:10483000424242427E42424242E700000000007C87
:104840001010101010101010107C00000000003E1E
:104850000808080808080808080888F0000000EEA2
:10486000444850705048484444EE0000000000E0C6
:10487000404040404040404042FE0000000000EE0A
:104880006C6C6C6C6C54545454D60000000000C71F
:10489000626252524A4A4A4646E20000000000382C
:1048A000448282828282828244380000000000FCBE
:1048B000424242427C40404040E00000000000385C
:1048C00044828282828282B24C380600000000FC60
:1048D0004242427C4848444442E300000000003E1B
:1048E0004242402018040242427C0000000000FEC8
:1048F000921010101010101010380000000000E787
:104900004242424242424242423C0000000000E732
:10491000424244242428281810100000000000D629
:1049200054545454546C282828280000000000E7F0
:10493000422424181818242442E70000000000EE46
:104940004444282810101010103800000000007E89
:10495000840408081020204242FC0000001E1010B1
:10496000101010101010101010101E000000402029
:10497000202010101008080404040202007808081F
:104980000808080808080808080878000018240023
:104990000000000000000000000000000000000017
:1049A0000000000000000000000000FF0060100098
:1049B00000000000000000000000000000000000F7
:1049C00000000038440C34444C3600000000000065
:1049D000C040405864424242645800000000000059
:1049E0000000001C22404040221C0000000000008B
:1049F0000602023E42424242463B000000000000E6
:104A00000000003C42427E40423C000000000000AA
:104A10000C12107C10101010107C00000000000020
:104A20000000003E444438403C42423C000000004C
:104A3000C040405C6242424242E700000000003059
:104A40003000007010101010107C00000000000CEE
:104A50000C00001C0404040404044478000000005A
:104A6000C040404E4850704844EE00000000001026
:104A70007010101010101010107C000000000000CA
:104A8000000000FE4949494949ED000000000000CE
:104A9000000000DC6242424242E7000000000000E9
:104AA0000000003C42424242423C00000000000044
:104AB000000000D864424242645840E00000000018
:104AC0000000001A26424242261A02070000000097
:104AD000000000EE3220202020F80000000000003E
:104AE0000000003E42403C02427C0000000000000A
:104AF0000010107C10101010120C000000000000BC
:104B0000000000C642424242463B00000000000056
:104B1000000000EE444428281010000000000000AF
:104B2000000000DB894A5A542424000000000000E1
:104B30000000007624181818246E00000000000001
:104B4000000000E742242418181010600000000044
:104B50000000007E44081010227E000000030404C0
:104B600004040404080404040404030008080808F6
:104B700008080808080808080808080800C02020D5
:104B800020202020102020202020C000205A0400B7
:104B90000000000000000000000000000000000015
:104BA00000001FFC3FFE7FFF700770077007700753
:104BB000700770077007700770077007700770073D
:104BC000700770077007700770077007700770072D
:104BD0007FFF3FFE1FFC00000000000000000000FF
:104BE00000000F000F800FC001C001C001C001C054
:104BF00001C001C001C001C001C001C001C001C0AD
:104C000001C001C001C001C001C001C001C001C09C
:104C10000FF00FF00FF00000000000000000000097
:104C200000007FFC7FFE7FFF0007000700070007F2
:104C3000000700070007000700071FFF3FFE7FFC7B
:104C400070007000700070007000700070007000E4
:104C50007FFF3FFF1FFF000000000000000000007A
:104C600000007FF87FFC7FFE000E000E000E000E9D
:104C7000000E000E000E000E000E7FFC7FF87FFC81
:104C8000000E000E000E000E000E000E000E000EB4
:104C90007FFE7FFC7FF800000000000000000000A5
:104CA00000007007700770077007700770077007C3
:104CB000700770077007700770077007700770073C
:104CC0007FFF3FFF1FFF00070007000700070007E7
:104CD00000070007000700000000000000000000BF
:104CE00000001FFF3FFF7FFF70007000700070002A
:104CF000700070007000700070007FFC3FFE1FFFAE
:104D0000000700070007000700070007000700076B
:104D10007FFF7FFE7FFC000000000000000000001D
:104D200000001FFF3FFF7FFF7000700070007000E9
:104D30007000700070007FFC7FFE7FFF70077007BF
:104D400070077007700770077007700770077007AB
:104D50007FFF3FFE1FFC000000000000000000007D
:104D600000003FF83FFC3FFE000E000E000E000E5C
:104D7000000E000E000E000E000E000E000E000EC3
:104D8000000E000E000E000E000E000E000E000EB3
:104D9000000E000E000E00000000000000000000E9
:104DA00000001FFC3FFE7FFF700770077007700751
:104DB00070077007700770073FFE1FFC3FFE70070B
:104DC000700770077007700770077007700770072B
:104DD0007FFF3FFE1FFC00000000000000000000FD
:104DE00000001FFC3FFE7FFF700770077007700711
:104DF0007007700770077007700770077FFE3FFC31
:104E00001FFE000700070007000700070007000754
:104E10007FFF7FFE7FFC000000000000000000001C
:104E200000000000000000000FFFC01FFFE03FFF78
:104E3000F07FFFF87800787800787800787800784C
:104E4000780078780078780078780078780078783A
:104E500000787800787800787800787800787800A2
:104E6000787800787800787800787800787800781A
:104E7000780078780078780078780078780078780A
:104E800000787800787800787FFFF83FFFF01FFF08
:104E9000E00FFFC000000000000000000000000064
:104EA00000000000000000000000000007E0000318
:104EB000F00003F80003FC00003C00003C00003C54
:104EC00000003C00003C00003C00003C00003C00B6
:104ED000003C00003C00003C00003C00003C0000A6
:104EE0003C00003C00003C00003C00003C00003C5A
:104EF00000003C00003C00003C00003C00003C0086
:104F0000003C00003C00003C00003C0003FF80032C
:104F1000FF8003FF8003FF8000000000000000000E
:104F20000000000000000000000000000000000081
:104F30007FFFC07FFFE07FFFF07FFFF80000780079
:104F40000078000078000078000078000078000009
:104F50007800007800007800007800007800007881
:104F60000FFFF81FFFF03FFFE07FFFC078000078E1
:104F700000007800007800007800007800007800D9
:104F800000780000780000780000780000780000C9
:104F90007FFFF83FFFF81FFFF80FFFF80000000049
:104FA0000000000000000000000000000000000001
:104FB000000000007FFFC07FFFE07FFFF07FFFF871
:104FC0000000780000780000780000780000780089
:104FD0000078000078000078000078000078000079
:104FE000780000787FFFF07FFFE07FFFE07FFFF039
:104FF0000000780000780000780000780000780059
:105000000078000078000078000078000078000048
:10501000780000787FFFF87FFFF07FFFE07FFFC020
:105020000000000000000000000000000000000080
:105030000000000000000000780078780078780018
:105040007878007878007878007878007878007838
:105050007800787800787800787800787800787828
:105060000078780078780078780078780078780090
:10507000787800787FFFF83FFFF81FFFF80FFFF800
:1050800000007800007800007800007800007800C8
:1050900000780000780000780000780000780000B8
:1050A0007800007800007800000000000000000098
:1050B0000000000000000000000000000FFFF81FCB
:1050C000FFF83FFFF87FFFF87800007800007800D5
:1050D0000078000078000078000078000078000078
:1050E0007800007800007800007800007FFFC03F63
:1050F000FFE01FFFF00FFFF80000780000780000CD
:1051000078000078000078000078000078000078CF
:105110000000780000780000780000787FFFF87FBA
:10512000FFF07FFFE07FFFC00000000000000000F4
:10513000000000000000000000000000000000006F
:105140000FFFFC1FFFFC3FFFFC7FFFFC7800007897
:1051500000007800007800007800007800007800F7
:10516000007800007800007800007FFFE07FFFF00B
:105170007FFFF87FFFFC78003C78003C78003C78AB
:10518000003C78003C78003C78003C78003C78009B
:105190003C78003C78003C78003C78003C78003C4F
:1051A0007FFFFC3FFFF81FFFF00FFFE00000000053
:1051B00000000000000000000000000000000000EF
:1051C000000000003FFF803FFFC03FFFE03FFFF0D7
:1051D0000000F00000F00000F00000F00000F0001F
:1051E00000F00000F00000F00000F00000F000000F
:1051F000F00000F00000F00000F00000F00000F00F
:105200000000F00000F00000F00000F00000F000EE
:1052100000F00000F00000F00000F00000F00000DE
:10522000F00000F00000F00000F00000F00000F0DE
:10523000000000000000000000000000000000006E
:1052400000000000000000000FFFE01FFFF03FFF24
:10525000F87FFFFC78003C78003C78003C78003C0C
:1052600078003C78003C78003C78003C78003C7842
:10527000003C78003C3FFFF81FFFF01FFFF03FFFAE
:10528000F878003C78003C78003C78003C78003CA2
:1052900078003C78003C78003C78003C78003C7812
:1052A000003C78003C78003C7FFFFC3FFFF81FFF8C
:1052B000F00FFFE000000000000000000000000010
:1052C0000000000000000000000000000FFFE01FD1
:1052D000FFF03FFFF87FFFFC78003C78003C78004F
:1052E0003C78003C78003C78003C78003C78003CFE
:1052F00078003C78003C78003C78003C78003C78B2
:10530000003C7FFFF83FFFF01FFFF00FFFF80000A9
:105310003C00003C00003C00003C00003C00003C25
:1053200000003C00003C00003C00003C7FFFFC7F94
:10533000FFF87FFFF07FFFE00000000000000000AA
:10534000000000000000000000000000007E7E7EE3
:105350007E7E7E7E00000000000000000000000055
:105360007E7E7E7E7E7E7E000000000000000000CB
:10537000CAB1BCE4C9E8D6C300000000C8D5C6DA8B
:10538000C9E8D6C300000000C1C1B6C8C9E8D6C389
:1053900000000000CFD4CABEC4A3CABD00000000F4
:1053A000D3EFD1D4C9E8D6C300000000C2F6B3E5FC
:1053B000C6B5C2CA00000000D5BCBFD5B1C8000048
:1053C000D0DDC3DFC9E8D6C300000000D7D4B6AF34
:1053D000B8FCD0C200000000B9D8D3DA0000000049
:1053E000D3EFD1D4D1A1D4F1D0FDD7AACFD4CABEA6
:1053F000B9CCBCFEC9FDBCB6BBD6B8B4B3F6B3A736
:10540000B0E6B1BED0C5CFA2CFB5CDB3C6F4B6AF6E
:10541000D6D0C7EBC9D4B5C8C6ACBFCCB4FDBBFAB7
:10542000CAB1BCE4B9D8BFAAD3A6B0B4BCFCD3A25D
:10543000CEC4BCF2B7B1CCE5B7D6D6D3C3EBC8ED7A
:10544000D3B2CAB9C4DCB4F2B1D5B1A3C1F4CBAF05
:10545000C3DFB5B9BCC6CDCBC8B7B6A8C8A1CFFB12
:10546000D55ADF7893F1DE44EF40BC898FCD8F535E
:10547000BD7986A284D3D58899439572E967EA50AD
:10548000E95F91AAE649BA86F377E78ADC9BE95D92
:10549000D38BB45FB2E2CAD4D2D1CDA3D6B9BCCC3F
:1054A000B5E7C6F7B9CAD5CFD7B4CCACD4DDD4CB29
:1054B000D0D0D6D0CAA3D3E0B4CECAFDD4A4BCC643
:1054C000BAC4CAB1B7D6D1D3D2C7000098CFFFFFB4
:1054D000C0CFFFFFE8CFFFFF00D0FFFF1AD0FFFFD4
:1054E0002AD0FFFF52D0FFFF7AD0FFFF92D0FFFFFC
:1054F000ACD0FFFF00000000000000000000000032
:10550000000000000000000000000000000000009B
:10551000000000000000000000000000000000008B
:10552000000000000000000000000000000000007B
:10553000000000000000000000000000000000006B
:10554000000000000000000000000000000000005B
:1055500000000000232D302B20000000686C4C0060
:10556000656667454647000030313233343536379B
:10557000383941424344454600000000303132335F
:10558000343536373839616263646566000000007F
:045590007C0C00206F
:10559400050000000A00000019000000C800000017
:1055A40002000000540C00200A0000000064000007
:1055B40005000000B8410000705300007C53000057
:1055C4008853000094530000A0530000AC53000023
:1055D400B8530000C0530000CC530000D85300005F
:1055E400000000001455000034550000F45400007D
:1055F40000000000000000000000000000000000A7
:105604000000000000000000000000000000000096
:105614000000000000000000000000000000000086
:105624000000000000000000000000000000000076
:105634000000000000000000000000000000000066
:105644000000000000020301008000007C0C002028
:045654000000000052
:00000001FF
